:020000040800F2
:100000000020002061280008592700086327000805
:1000100000000000000000000000000000000000E0
:100020000000000000000000000000006927000838
:100030000000000000000000732700087D27000872
:10004000B1280008B1280008B1280008B12800082C
:10005000B1280008B1280008B1280008B12800081C
:10006000B1280008B1280008B1280008B12800080C
:10007000B1280008B1280008B1280008912700081D
:10008000A9270008B128000800000000B1280008D6
:10009000B1280008C1270008B1280008B1280008CD
:1000A000B1280008B1280008B1280008B1280008CC
:1000B000B128000800000000B1280008000000007E
:1000C00010B5064C2378002B07D1054B002B02D02E
:1000D000044800E000BF0123237010BD0800002089
:1000E00000000000FC280008044B10B5002B03D0D2
:1000F0000349044800E000BF10BDC04600000000F6
:100100000C000020FC280008002243088B4274D316
:1001100003098B425FD3030A8B4244D3030B8B4208
:1001200028D3030C8B420DD3FF22090212BA030C11
:100130008B4202D31212090265D0030B8B4219D3F2
:1001400000E0090AC30B8B4201D3CB03C01A524112
:10015000830B8B4201D38B03C01A5241430B8B425A
:1001600001D34B03C01A5241030B8B4201D30B0343
:10017000C01A5241C30A8B4201D3CB02C01A52416A
:10018000830A8B4201D38B02C01A5241430A8B422D
:1001900001D34B02C01A5241030A8B4201D30B0216
:1001A000C01A5241CDD2C3098B4201D3CB01C01A30
:1001B000524183098B4201D38B01C01A524143093A
:1001C0008B4201D34B01C01A524103098B4201D328
:1001D0000B01C01A5241C3088B4201D3CB00C01A95
:1001E000524183088B4201D38B00C01A524143080D
:1001F0008B4201D34B00C01A5241411A00D2014632
:10020000524110467047FFE701B5002000F006F8A4
:1002100002BDC0460029F7D076E770477047C04658
:1002200080B500AF074B074A126810210A431A60D5
:10023000002000F009F802F0FBF900231800BD4689
:1002400080BDC0460020024080B582B000AF78601B
:1002500000F0DCFE0200FA2399001000FFF754FFC3
:100260000300180000F0F0F8796801235B420022D7
:10027000180000F0C3F800231800BD4602B080BD8E
:1002800080B500AF034B1B685A1C024B1A60C04676
:10029000BD4680BD4000002080B500AF024B1B680A
:1002A0001800BD4680BDC0464000002080B582B029
:1002B00000AF0200FB1D1A70064BFA1D12781100E8
:1002C0001F220A40012191400A001A60C046BD4623
:1002D00002B080BD00E100E0B0B582B000AF020026
:1002E0003960FB1D1A70FB1D1B787F2B32D92F4CF8
:1002F000FB1D1B781A000F231340083B99082B4A5B
:10030000FB1D1B7818000F230340083B9B08063396
:100310009B00D31804331B68FA1D127810000322C7
:100320000240D200FF2090400200D2431A403B68B6
:100330009B01FF201840FB1D1B781D0003232B4051
:10034000DB00984003001A438B1D9B00E318043325
:100350001A6027E0164CFB1D1B785BB29B08144902
:10036000FA1D127852B29208C03292005258F91D0A
:100370000978080003210140C900FF2088400100DE
:10038000C94311403A689201FF201040FA1D1278CB
:10039000150003222A40D200904002000A43C033D5
:1003A0009B001A51C046BD4602B0B0BD00ED00E052
:1003B00000E100E080B582B000AF78607B68013B6F
:1003C0000C4A934201D9012310E00B4B7A68013AA1
:1003D0005A6001235B4203211800FFF77DFF064BA3
:1003E00000229A60044B07221A6000231800BD46C1
:1003F00002B080BDFFFFFF0010E000E080B584B0D8
:1004000000AFB9607A600F23FB18021C1A70BA683B
:100410000F23FB181B785BB211001800FFF75CFF7D
:10042000C046BD4604B080BD80B582B000AF0200BA
:10043000FB1D1A70FB1D1B785BB21800FFF736FF1F
:10044000C046BD4602B080BD80B582B000AF7860C6
:100450007B681800FFF7AEFF03001800BD4602B02E
:1004600080BD000080B582B000AF78607B68042B4F
:1004700006D1084B074A126804210A431A6005E0B6
:10048000044B044A126804218A431A60C046BD46E0
:1004900002B080BD10E000E080B500AF00F003F8CE
:1004A000C046BD4680BD80B500AFC046BD4680BDDC
:1004B00080B586B000AF7860396000237B6100238F
:1004C000FB6000233B614FE13B681B6801217A69B7
:1004D00091400A001340FB60FB68002B00D140E113
:1004E0003B685B68022B03D03B685B68122B23D10F
:1004F0007B69DA087B6808329200D3583B617B69DC
:10050000072213409B000F229A401300DA433B69F5
:1005100013403B613B681A697B6907210B409B00D4
:100520009A4013003A6913433B617B69DA087B68A0
:10053000083292003969D1507B681B683B617B6946
:100540005B0003229A401300DA433B6913403B618E
:100550003B685B6803221A407B695B009A4013008A
:100560003A6913433B617B683A691A603B685B6890
:10057000012B0BD03B685B68022B07D03B685B68A4
:10058000112B03D03B685B68122B30D17B689B68D2
:100590003B617B695B0003229A401300DA433B69AD
:1005A00013403B613B68DA687B695B009A4013004B
:1005B0003A6913433B617B683A699A607B685B6880
:1005C0003B6101227B699A401300DA433B69134087
:1005D0003B613B685B681B0901221A407B699A40BA
:1005E00013003A6913433B617B683A695A607B6840
:1005F000DB683B617B695B0003229A401300DA43AE
:100600003B6913403B613B689A687B695B009A4099
:1006100013003A6913433B617B683A69DA603B68CF
:100620005A6880235B05134000D19AE0544B544A2A
:10063000926901210A439A61514B9B69012213403F
:10064000BB60BB684F4A7B699B0802339B009B5889
:100650003B617B69032213409B000F229A401300E9
:10066000DA433B6913403B617A689023DB059A4289
:1006700013D07B68444A93420DD07B68434A93422F
:1006800007D07B68424A934201D1032306E0052349
:1006900004E0022302E0012300E000237A69032141
:1006A0000A40920093403A6913433B6135497B69A4
:1006B0009B0802339B003A695A50364B1B683B61DA
:1006C000FB68DA433B6913403B613B685A6880230F
:1006D0005B02134003D03A69FB6813433B612D4B27
:1006E0003A691A602B4B5B683B61FB68DA433B69F4
:1006F00013403B613B685A6880239B02134003D040
:100700003A69FB6813433B61224B3A695A60214BBB
:100710009B683B61FB68DA433B6913403B613B6884
:100720005A6880235B03134003D03A69FB68134384
:100730003B61184B3A699A60164BDB683B61FB687A
:10074000DA433B6913403B613B685A6880239B0353
:10075000134003D03A69FB6813433B610D4B3A6980
:10076000DA607B6901337B613B681A687B69DA4038
:10077000131E00D0A8E6C046BD4606B080BDC046E8
:10078000001002400000014000040048000800483A
:10079000000C00480004014080B586B000AF7860CE
:1007A00000233B617B681B680122134000D18DE070
:1007B000C34B5B680C221340042B0ED0C04B5B680C
:1007C0000C221340082B16D1BD4B5A6880235B02C4
:1007D0001A4080235B029A420DD1B94B1A688023DC
:1007E0009B02134000D170E07B685B68002B00D057
:1007F0006BE00123B5E27B685B68012B07D1B04B4E
:10080000AF4A1268802149020A431A602FE07B68D0
:100810005B68002B0CD1AA4BA94A1268A9490A406F
:100820001A60A74BA64A1268A7490A401A601EE040
:100830007B685B68052B0ED1A14BA14A1268802111
:10084000C9020A431A609E4B9D4A126880214902E0
:100850000A431A600BE09A4B994A126899490A4078
:100860001A60974B964A126897490A401A607B684B
:100870005B68002B14D0FFF70FFD03003B6108E01D
:10088000FFF70AFD02003B69D31A642B01D9032349
:1008900067E28B4B1A6880239B021340F0D015E06F
:1008A000FFF7FAFC03003B6108E0FFF7F5FC0200EC
:1008B0003B69D31A642B01D9032352E2804B1A6897
:1008C00080239B021340F0D100E0C0467B681B6888
:1008D0000222134000D169E0794B5B680C2213407F
:1008E0000BD0774B5B680C221340082B1CD1744B48
:1008F0005A6880235B02134016D1714B1B68022299
:10090000134005D07B68DB68012B01D0012328E26E
:100910006B4A6B4B1B68F8218B4319007B681B6982
:10092000DB000B43136041E07B68DB68002B24D0C5
:10093000634B634A126801210A431A60FFF7ACFC5B
:1009400003003B6108E0FFF7A7FC02003B69D31AF4
:10095000022B01D9032304E2594B1B6802221340E6
:10096000F1D0574A564B1B68F8218B4319007B681E
:100970001B69DB000B43136018E0514B504A1268AF
:1009800001218A431A60FFF787FC03003B6108E0FE
:10099000FFF782FC02003B69D31A022B01D9032323
:1009A000DFE1474B1B6802221340F1D17B681B68D3
:1009B0000822134036D07B68DB69002B19D0404BEE
:1009C0003F4A526A01210A435A62FFF765FC03005D
:1009D0003B6108E0FFF760FC02003B69D31A022B81
:1009E00001D90323BDE1364B5B6A02221340F1D0EB
:1009F00018E0334B324A526A01218A435A62FFF7A8
:100A00004BFC03003B6108E0FFF746FC02003B693A
:100A1000D31A022B01D90323A3E1294B5B6A0222DB
:100A20001340F1D17B681B680422134000D1B5E06C
:100A30001723FB1800221A70214BDA6980235B050B
:100A4000134011D11E4B1E4AD269802149050A4329
:100A5000DA611B4BDA6980235B051340FB60FB689E
:100A60001723FB1801221A70184B1A6880235B00A9
:100A700013401AD1154B154A1268802149000A43C8
:100A80001A60FFF709FC03003B6108E0FFF704FC74
:100A900002003B69D31A642B01D9032361E10B4B9C
:100AA0001A6880235B001340F0D07B689B68012BA1
:100AB0000ED1034B024A126A01210A431A6235E041
:100AC00000100240FFFFFEFFFFFFFBFF0070004031
:100AD0007B689B68002B0CD1A44BA44A126A0121AD
:100AE0008A431A62A14BA14A126A04218A431A62FC
:100AF0001CE07B689B68052B0CD19C4B9B4A126ABF
:100B000004210A431A62994B984A126A01210A4346
:100B10001A620BE0954B954A126A01218A431A62C8
:100B2000924B924A126A04218A431A627B689B683C
:100B3000002B14D0FFF7B0FB03003B6109E0FFF787
:100B4000ABFB02003B69D31A894A934201D90323C4
:100B500007E1864B1B6A02221340F0D013E0FFF737
:100B60009BFB03003B6109E0FFF796FB02003B693A
:100B7000D31A7F4A934201D90323F2E07B4B1B6ACD
:100B800002221340F0D11723FB181B78012B05D14B
:100B9000764B764AD26977490A40DA617B681B68EE
:100BA0001022134063D07B685B69012B2AD16F4B05
:100BB0006E4A526B04210A435A636C4B6B4A526B68
:100BC00001210A435A63FFF767FB03003B6108E01A
:100BD000FFF762FB02003B69D31A022B01D9032302
:100BE000BFE0624B5B6B02221340F1D05F4A5F4B68
:100BF0005B6BF8218B4319007B689B69DB000B431F
:100C0000536334E07B685B69053311D1574B574A16
:100C1000526B04218A435A63544A544B5B6BF8214C
:100C20008B4319007B689B69DB000B4353631EE019
:100C30004E4B4E4A526B04210A435A634B4B4B4A6C
:100C4000526B01218A435A63FFF726FB03003B6185
:100C500008E0FFF721FB02003B69D31A022B01D900
:100C600003237EE0414B5B6B02221340F1D17B6892
:100C70001B6A002B00D173E03C4B5B680C221340D5
:100C8000082B00D16AE07B681B6A022B4BD1374BE3
:100C9000364A126838490A401A60FFF7FDFA030025
:100CA0003B6108E0FFF7F8FA02003B69D31A022B18
:100CB00001D9032355E02D4B1A6880239B04134070
:100CC000F0D12A4A294BDB6A0F218B4319007B683C
:100CD000DB6A0B43D362254A244B5B6827491940E2
:100CE0007B68986A7B685B6A03430B4353601F4BC6
:100CF0001E4A1268802149040A431A60FFF7CCFAA1
:100D000003003B6108E0FFF7C7FA02003B69D31A12
:100D1000022B01D9032324E0144B1A6880239B047F
:100D20001340F0D01CE0114B104A126812490A40DF
:100D30001A60FFF7B1FA03003B6108E0FFF7ACFA75
:100D400002003B69D31A022B01D9032309E0074BA8
:100D50001A6880239B041340F0D101E0012300E0D6
:100D600000231800BD4606B080BDC04600100240FA
:100D700088130000FFFFFFEFFFFFFFFEFFFFC2FF32
:100D800080B584B000AF786039600023FB60694BA8
:100D90001B6801221A403B689A4211D2654B654A92
:100DA000126801218A4311003A680A431A60614BB4
:100DB0001B6801221A403B689A4201D00123B5E02A
:100DC0007B681B680222134009D05B4A5A4B5B6860
:100DD000F0218B4319007B689B680B4353607B6851
:100DE0001B680122134000D167E07B685B68012B20
:100DF00007D1514B1A6880239B02134014D1012361
:100E000094E07B685B68022B07D14B4B1A68802308
:100E10009B04134008D1012388E0474B1B68022242
:100E2000134001D1012381E0434A434B5B68032116
:100E30008B4319007B685B680B435360FFF72CFA08
:100E40000300FB607B685B68012B11D109E0FFF7B1
:100E500023FA0200FB68D31A384A934201D90323CC
:100E600064E0354B5B680C221340042BEFD124E087
:100E70007B685B68022B1BD109E0FFF70DFA0200CB
:100E8000FB68D31A2D4A934201D903234EE02A4B23
:100E90005B680C221340082BEFD10EE0FFF7FCF942
:100EA0000200FB68D31A254A934201D903233DE08F
:100EB000214B5B680C221340F0D11E4B1B680122B2
:100EC0001A403B689A4211D91A4B1A4A12680121FA
:100ED0008A4311003A680A431A60164B1B680122C4
:100EE0001A403B689A4201D001231FE07B681B68CF
:100EF0000422134008D0104A0F4B5B681049194078
:100F00007B68DB680B43536000F020F801000A4B5C
:100F10005B681B090F2213400A4AD35C0A00DA40BF
:100F2000094B1A600020FFF78FF900231800BD4617
:100F300004B080BD00200240001002408813000071
:100F4000FFF8FFFF5C2900080400002090B58FB077
:100F500000AF1423FB18284A13CA13C312681A607F
:100F60003B1D264A13CA13C312681A600023FB6292
:100F70000023BB6200237B6300237B6200233B636F
:100F80001F4B5B68FB62FB6A0C221340042B02D0F0
:100F9000082B03D027E01B4B3B6327E0FB6A9B0C2D
:100FA0000F2213401422BA18D35C7B62144BDB6A05
:100FB0000F2213403A1DD35CBB62FA6A80235B02A6
:100FC000134009D0B96A0F48FFF79EF803001A00D2
:100FD0007B6A53437B6303E07B6A0B4A53437B6327
:100FE0007B6B3B6302E0074B3B63C0463B6B1800E7
:100FF000BD460FB090BDC046142900082429000842
:101000000010024000127A0000093D0080B500AFD8
:10101000024B1B681800BD4680BDC046040000207E
:1010200080B586B000AF786000233B610023FB6091
:101030007B681A6880235B02134000D18EE017237F
:10104000FB1800221A705F4BDA6980235B0513409E
:1010500011D15C4B5B4AD269802149050A43DA61B0
:10106000584BDA6980235B051340BB60BB681723CC
:10107000FB1801221A70544B1A6880235B0013403E
:101080001AD1514B504A1268802149000A431A6014
:10109000FFF702F903003B6108E0FFF7FDF80200EB
:1010A0003B69D31A642B01D9032386E0464B1A68A7
:1010B00080235B001340F0D0424B1A6AC0239B0090
:1010C0001340FB60FB68002B34D07B685A68C02358
:1010D0009B001A40FB689A422CD03A4B1B6A3B4A51
:1010E0001340FB60374B374A126A802149020A439A
:1010F0001A62344B334A126A35490A401A62314B3C
:10110000FA681A62FB680122134013D0FFF7C4F893
:1011100003003B6109E0FFF7BFF802003B69D31A07
:101120002C4A934201D9032347E0264B1B6A022233
:101130001340F0D0234A234B1B6A244919407B6893
:101140005B680B4313621723FB181B78012B05D137
:101150001C4B1C4AD26920490A40DA617B681B6833
:101160000122134009D0174A164B1B6B03218B43F6
:1011700019007B689B680B4313637B681B68202204
:10118000134009D00F4A0F4B1B6B10218B431900E2
:101190007B68DB680B4313637B681A688023DB0082
:1011A000134009D0074A074B1B6B40218B431900A2
:1011B0007B681B690B43136300231800BD4606B010
:1011C00080BDC0460010024000700040FFFCFFFFE1
:1011D000FFFFFEFF88130000FFFFFFEF80B582B026
:1011E00000AF78607B68002B01D101231EE07B6893
:1011F0003D229B5CDBB2002B07D17B683C220021A7
:1012000099547B68180001F04BFA7B683D2202215B
:1012100099547B681A687B6804331900100000F049
:1012200069FB7B683D220121995400231800BD46CB
:1012300002B080BD80B582B000AF78607B681B686B
:101240007A681268D26801210A43DA607B681B68F9
:101250007A681268126801210A431A600023180094
:10126000BD4602B080BD000080B582B000AF78609E
:101270007B681B687A681268D26801218A43DA6049
:101280007B681B681B6A0B4A13400DD17B681B6887
:101290001B6A094A134007D17B681B687A68126889
:1012A000126801218A431A6000231800BD4602B06B
:1012B00080BDC046111100004404000080B582B01A
:1012C00000AF78607B68002B01D101231EE07B68B2
:1012D0003D229B5CDBB2002B07D17B683C220021C6
:1012E00099547B68180000F015F87B683D220221B4
:1012F00099547B681A687B6804331900100000F069
:10130000F9FA7B683D220121995400231800BD465B
:1013100002B080BD80B582B000AF7860C046BD46E7
:1013200002B080BD80B582B000AF786039607B6864
:101330001B6839680122180000F072FD7B681B6889
:10134000164A93420ED07B681B68154A934209D017
:101350007B681B68134A934204D07B681B68124A5F
:10136000934201D1012300E00023002B08D07B68C9
:101370001B687A681268526C802109020A435A6419
:101380007B681B687A681268126801210A431A6038
:1013900000231800BD4602B080BDC046002C0140AD
:1013A00000400140004401400048014080B582B047
:1013B00000AF78607B68002B01D101231EE07B68C1
:1013C0003D229B5CDBB2002B07D17B683C220021D5
:1013D00099547B68180000F015F87B683D220221C3
:1013E00099547B681A687B6804331900100000F078
:1013F00081FA7B683D220121995400231800BD46E3
:1014000002B080BD80B582B000AF7860C046BD46F6
:1014100002B080BD80B582B000AF78607B681B6889
:101420001B6902221340022B24D17B681B68DB68F6
:1014300002221340022B1DD17B681B6803225242FB
:101440001A617B6801221A777B681B689B690322FB
:10145000134004D07B68180000F082FD07E07B6831
:10146000180000F02EFA7B68180000F032FA7B6852
:1014700000221A777B681B681B6904221340042B27
:1014800025D17B681B68DB6804221340042B1ED126
:101490007B681B68052252421A617B6802221A7718
:1014A0007B681B689A69C0239B00134004D07B684B
:1014B000180000F055FD07E07B68180000F001FA05
:1014C0007B68180000F005FA7B6800221A777B68B9
:1014D0001B681B6908221340082B24D17B681B68FA
:1014E000DB6808221340082B1DD17B681B6809228A
:1014F00052421A617B6804221A777B681B68DB6999
:101500000322134004D07B68180000F029FD07E097
:101510007B68180000F0D5F97B68180000F0D9F955
:101520007B6800221A777B681B681B6910221340B6
:10153000102B25D17B681B68DB6810221340102B11
:101540001ED17B681B68112252421A617B680822F7
:101550001A777B681B68DA69C0239B00134004D0AC
:101560007B68180000F0FCFC07E07B68180000F0C6
:10157000A8F97B68180000F0ACF97B6800221A77A4
:101580007B681B681B6901221340012B0FD17B680C
:101590001B68DB6801221340012B08D17B681B68A4
:1015A000022252421A617B68180000F061FD7B68DC
:1015B0001B681B6980221340802B0FD17B681B683E
:1015C000DB6880221340802B08D17B681B68812256
:1015D00052421A617B68180000F0BAFC7B681B68F5
:1015E0001B6940221340402B0FD17B681B68DB68CE
:1015F00040221340402B08D17B681B684122524295
:101600001A617B68180000F06CF97B681B681B6925
:1016100020221340202B0FD17B681B68DB6820221F
:101620001340202B08D17B681B68212252421A618B
:101630007B68180000F084FCC046BD4602B080BD47
:1016400080B584B000AFF860B9607A60FB683C2276
:101650009B5C012B01D102233CE0FB683C22012171
:101660009954FB683D22022199547B68042B10D0C9
:1016700002D8002B05D024E0082B12D00C2B18D058
:101680001FE0FB681B68BA681100180000F0B4F98D
:1016900017E0FB681B68BA681100180000F03AFAFE
:1016A0000FE0FB681B68BA681100180000F0BCFA74
:1016B00007E0FB681B68BA681100180000F040FBE7
:1016C000C046FB683D2201219954FB683C22002161
:1016D000995400231800BD4604B080BD80B584B085
:1016E00000AFF860B9607A60FB683C229B5C012B1C
:1016F00001D10223A4E0FB683C2201219954FB683C
:101700003D22022199547B68042B29D002D8002B5A
:1017100005D08CE0082B46D00C2B65D087E0FB6809
:101720001B68BA681100180000F066F9FB681B68B6
:10173000FA681268926908210A439A61FB681B687B
:10174000FA681268926904218A439A61FB681B68EF
:10175000FA6812689169BA6812690A439A6166E088
:10176000FB681B68BA681100180000F0D3F9FB6829
:101770001B68FA6812689269802109010A439A611C
:10178000FB681B68FA68126892692F490A409A61DF
:10179000FB681B68FA6812689169BA6812691202DC
:1017A0000A439A6143E0FB681B68BA68110018009D
:1017B00000F03AFAFB681B68FA681268D2690821DF
:1017C0000A43DA61FB681B68FA681268D26904216F
:1017D0008A43DA61FB681B68FA681268D169BA68E3
:1017E00012690A43DA6122E0FB681B68BA681100DB
:1017F000180000F0A5FAFB681B68FA681268D26945
:10180000802109010A43DA61FB681B68FA681268E3
:10181000D2690D490A40DA61FB681B68FA681268F0
:10182000D169BA68126912020A43DA61C046FB68DC
:101830003D2201219954FB683C2200219954002348
:101840001800BD4604B080BDFFFBFFFF80B584B02B
:1018500000AF786039600023FB607B683C229B5CB2
:10186000012B01D1022328E07B683C2201219954FD
:101870003B68042B0DD002D8002B05D018E0082BB4
:101880000CD00C2B0FD013E07B681B685B6BFB60EC
:101890000EE07B681B689B6BFB6009E07B681B6844
:1018A000DB6BFB6004E07B681B681B6CFB60C04665
:1018B0007B683C2200219954FB681800BD4604B0A7
:1018C00080BD80B582B000AF7860C046BD4602B032
:1018D00080BD80B582B000AF7860C046BD4602B022
:1018E00080BD80B582B000AF7860C046BD4602B012
:1018F00080BD000080B584B000AF786039600023FF
:10190000FB607B681B68FB607B68344A934208D0AD
:101910007A688023DB059A4203D07B68304A934281
:1019200008D1FB6870229343FB603B685B68FA68F0
:101930001343FB607B68294A934218D07A6880235E
:10194000DB059A4213D07B68254A93420FD07B680F
:10195000244A93420BD07B68234A934207D07B688A
:10196000224A934203D07B68214A934208D1FB6804
:10197000204A1340FB603B68DB68FA681343FB6056
:10198000FB68802293431A003B685B691343FB604A
:101990007B68FA681A603B689A687B68DA623B6821
:1019A0001A687B689A627B680C4A93420BD07B680A
:1019B0000D4A934207D07B680C4A934203D07B6860
:1019C0000B4A934203D13B681A697B681A637B68B0
:1019D00001225A61C046BD4604B080BD002C0140C2
:1019E000000400400020004000400140004401404D
:1019F00000480140FFFCFFFF80B586B000AF786073
:101A000039600023FB6000237B6100233B617B681E
:101A10001B6A012293431A007B681A627B681B6A67
:101A20007B617B685B683B617B689B69FB60FB68F3
:101A300070229343FB60FB6803229343FB603B6887
:101A40001B68FA681343FB607B69022293437B6146
:101A50003B689B687A6913437B617B68274A9342A2
:101A60000BD07B68264A934207D07B68254A934275
:101A700003D07B68244A93420CD17B6908229343AC
:101A80007B613B68DB687A6913437B617B69042275
:101A900093437B617B68194A93420BD07B68184A59
:101AA000934207D07B68174A934203D07B68164A5B
:101AB000934211D13B69154A13403B613B69144A7B
:101AC00013403B613B685B693A6913433B613B6888
:101AD0009B693A6913433B617B683A695A607B684A
:101AE000FA689A613B685A687B685A637B687A69CE
:101AF0001A62C046BD4606B080BDC046002C0140FB
:101B0000004001400044014000480140FFFEFFFF4B
:101B1000FFFDFFFF80B586B000AF7860396000231D
:101B2000FB6000237B6100233B617B681B6A102202
:101B300093431A007B681A627B681B6A7B617B682F
:101B40005B683B617B689B69FB60FB682E4A1340C6
:101B5000FB60FB682D4A1340FB603B681B681B025F
:101B6000FA681343FB607B69202293437B613B68E7
:101B70009B681B017A6913437B617B68244A93420B
:101B80000DD17B69802293437B613B68DB681B013D
:101B90007A6913437B617B69402293437B617B6855
:101BA0001B4A93420BD07B681A4A934207D07B684A
:101BB000194A934203D07B68184A934213D13B6978
:101BC000174A13403B613B69164A13403B613B682F
:101BD0005B699B003A6913433B613B689B699B00CF
:101BE0003A6913433B617B683A695A607B68FA68DB
:101BF0009A613B685A687B689A637B687A691A6263
:101C0000C046BD4606B080BDFF8FFFFFFFFCFFFF53
:101C1000002C0140004001400044014000480140C8
:101C2000FFFBFFFFFFF7FFFF80B586B000AF7860D6
:101C300039600023FB6000237B6100233B617B68EC
:101C40001B6A354A1A407B681A627B681B6A7B6193
:101C50007B685B683B617B68DB69FB60FB687022CB
:101C60009343FB60FB6803229343FB603B681B6864
:101C7000FA681343FB607B69284A13407B613B6829
:101C80009B681B027A6913437B617B68244A9342F9
:101C90000DD17B69234A13407B613B68DB681B02E3
:101CA0007A6913437B617B691F4A13407B617B68C0
:101CB0001B4A93420BD07B681C4A934207D07B6837
:101CC0001B4A934203D07B681A4A934213D13B6963
:101CD000194A13403B613B69184A13403B613B681A
:101CE0005B691B013A6913433B613B689B691B01BC
:101CF0003A6913433B617B683A695A607B68FA68CA
:101D0000DA613B685A687B68DA637B687A691A62D1
:101D1000C046BD4606B080BDFFFEFFFFFFFDFFFFD2
:101D2000002C0140FFF7FFFFFFFBFFFF00400140D9
:101D30000044014000480140FFEFFFFFFFDFFFFFCD
:101D400080B586B000AF7860396000233B61002326
:101D5000FB6000237B617B681B6A284A1A407B6812
:101D60001A627B681B6AFB607B685B687B617B68CF
:101D7000DB693B613B69224A13403B613B69214A75
:101D800013403B613B681B681B023A6913433B618C
:101D9000FB681D4A1340FB603B689B681B03FA68A5
:101DA0001343FB607B68194A93420BD07B68184A47
:101DB000934207D07B68174A934203D07B68164A48
:101DC000934209D17B69154A13407B613B685B698B
:101DD0009B017A6913437B617B687A695A607B68EF
:101DE0003A69DA613B685A687B681A647B68FA680A
:101DF0001A62C046BD4606B080BDC046FFEFFFFF79
:101E0000FF8FFFFFFFFCFFFFFFDFFFFF002C014004
:101E1000004001400044014000480140FFBFFFFF77
:101E200080B586B000AFF860B9607A6000237B614E
:101E30000122BB689A4013007B61FB681B6A7A69C8
:101E4000D2431A40FB681A62FB681A6A7968BB6859
:101E500099400B001A43FB681A62C046BD4606B0A3
:101E600080BD000080B584B000AF78603960002389
:101E7000FB607B683C229B5C012B01D102234DE07F
:101E80007B683C22012199547B683D2202219954B0
:101E9000FB68FF2293431A003B68DB681343FB6037
:101EA000FB68204A1A403B689B681343FB60FB6851
:101EB0001D4A1A403B685B681343FB60FB681B4A82
:101EC0001A403B681B681343FB60FB68184A1A40C2
:101ED0003B681B691343FB60FB68164A1A403B686A
:101EE0005B691343FB60FB68134A1A403B689B69BC
:101EF0001343FB60FB68114A1A403B689B6913431C
:101F0000FB607B681B68FA685A647B683D2201218C
:101F100099547B683C220021995400231800BD4647
:101F200004B080BDFFFCFFFFFFFBFFFFFFF7FFFFDB
:101F3000FFEFFFFFFFDFFFFFFFBFFFFFFF7FFFFFA1
:101F400080B582B000AF7860C046BD4602B080BDAB
:101F500080B582B000AF7860C046BD4602B080BD9B
:101F600080B582B000AF78607B681B7F012B68D1A1
:101F7000364B1B78DBB2012B06D1354B1800FFF72F
:101F800059F9324B02221A70324B00221A80324B1E
:101F90001B68002B0BD17B6800211800FFF756FC53
:101FA00002002E4B1A602C4B01221A6049E07B681C
:101FB00000211800FFF74AFC0200294B1A60274B4A
:101FC0001A68274B1B689A4216D9264B1B889BB26E
:101FD0001800234B1B689AB2204B1B689BB2D31A84
:101FE00099B2214B4200D1521E4B1B889BB2013348
:101FF0009AB21C4B1A8015E01A4B1B889BB2180032
:10200000174B1B689AB2154B1B689BB2D31A99B237
:10201000154B4200D152134B1B889BB201339AB22D
:10202000104B1A800C4B00221A600E4B1B889BB27F
:102030000D2B06D90D4B1B78DBB20133DAB20B4BFB
:102040001A70C046BD4602B080BDC04624000020C4
:10205000840000202A000020340000202C000020F2
:10206000300000202600002034010020280000203D
:1020700080B582B000AF78607A68154B9A421DD166
:10208000144B1B78DBB2022B18D1134B1B889BB26D
:1020900001339AB2104B1A800F4B1B889BB2232B33
:1020A0000CD97B681800FFF7DFF80C4B1800FFF71E
:1020B000DBF80B4B01221A70064B1B787A68094B30
:1020C0009A4201D100F084F9C046BD4602B080BDFD
:1020D00084000020240000202A000020FC010020B1
:1020E000290000203C02002080B584B000AF786059
:1020F000094B1B689B69FB60FB6870229343FB6084
:10210000FA687B681343FB60034B1B68FA689A61AB
:10211000C046BD4604B080BD3C02002080B58EB0F4
:1021200000AF454B454A1A60434B00225A60424B70
:1021300000229A60404B96225201DA603E4B002208
:102140001A613D4B00225A613B4B00229A613A4B87
:102150001800FFF743F8031E04D0394B8221180002
:1021600000F060FA344B1800FFF7A8F8031E04D003
:10217000334B8721180000F055FA1C23FB1800226E
:102180001A601C23FB18962252015A601C23FB186C
:1021900000229A601C23FB180022DA601C23FB1823
:1021A00000221A611C23FB1800225A611C23FB1811
:1021B00000229A611C23F9181F4B00221800FFF718
:1021C0003FFA031E04D01E4B9321180000F02AFA98
:1021D0003B0000221A603B0000225A603B000022B4
:1021E0009A603B000022DA603B0000221A613B004B
:1021F000802292015A613B0000229A613A000E4B04
:1022000011001800FFF72EFE031E04D00C4B9F2177
:10221000180000F007FA002200211520FEF7EEF862
:102220001520FEF701F9044B00211800FFF77AF89A
:10223000C046BD460EB080BD3C02002000440140B7
:102240003429000880B58EB000AF404B404A1A6078
:102250003E4B00225A603D4B00229A603B4BC72206
:10226000DA603A4B00221A61384B00225A61374B30
:1022700000229A61354B1800FEF7B0FF031E04D010
:10228000344BBB21180000F0CDF9304B1800FFF79C
:102290008DF8031E04D02F4BC021180000F0C2F9A6
:1022A0001C23FB1860221A601C23FB1863225A604F
:1022B0001C23FB1800229A601C23FB180022DA6002
:1022C0001C23FB1800221A611C23FB1800225A61F0
:1022D0001C23FB1800229A611C23F9181B4B0022B7
:1022E0001800FFF7FBF9031E04D01A4BCC2118008D
:1022F00000F098F93B0000221A603B0000225A606F
:102300003B0000229A603B000022DA603B00002282
:102310001A613B00802292015A613B0000229A61BF
:102320003A000A4B11001800FFF79CFD031E04D071
:10233000084BD821180000F075F9044B0021180053
:10234000FEF7F0FFC046BD460EB080BD4400002041
:10235000004801403429000880B586B000AF144B16
:10236000134A5269802189020A435A61104B5A6903
:1023700080239B0213403B603B683B1D80229201FF
:102380001A603B1D02225A603B1D00229A603B1DD1
:102390000322DA603B1D01221A613A1D9023DB05FE
:1023A00011001800FEF784F8C046BD4606B080BD97
:1023B0000010024080B500AFFDF732FFFFF7CCFF01
:1023C000FFF740FFFFF7AAFEC046BD4680BD0000F4
:1023D00080B582B000AF00237B6000233B604D4B93
:1023E0001B78002B54D04C4B1B784B2B50D84B4BAD
:1023F00000221A70484B1A78494B1B789A420AD22D
:10240000484B1B68444A1278D340DBB21A000123C0
:1024100013403B6019E0404B1B781A00404B1B787F
:10242000D31A00D51F335B115A1C3E4B9200D25871
:10243000394B1B7819003A4B1B78CB1ADA40130042
:10244000DBB21A00012313403B603B68002B03D032
:102450005020FFF749FE14E03B68002B03D14020D9
:10246000FFF742FE0DE02C4B1B7819002E4B1B781A
:102470005B012B4A12789B18994202DC4020FFF73F
:1024800033FE254B1B780133DAB2234B1A703DE043
:10249000224B01221A701F4B00221A70234B180086
:1024A000FEF7E2FE204B00221A701B4B00221A702E
:1024B0001B4B00221A701E4B00221A8000237B60E7
:1024C00007E0184B7A6892000021D1507B680133F5
:1024D0007B60154B1B781A007B689A42F1D840202C
:1024E000FFF702FE114B1B681B6A124A13400DD105
:1024F0000E4B1B681B6A104A134007D10B4B1B681D
:102500000A4A1268126801218A431A60C046BD4611
:1025100002B080BD3A0000203B00002000000020F7
:102520003C0000207C0200203D0000203C020020F6
:1025300038000020111100004404000080B500AFF5
:10254000FDF76EFE00F004F8FFF734FFFEE7000031
:1025500080B596B000AF2823FB1802221A6028230A
:10256000FB180122DA602823FB1810221A612823A5
:10257000FB1800221A622823FB181800FEF70CF93A
:10258000031E04D0264B4321180000F04BF81823FB
:10259000FB1807221A601823FB1800225A60182320
:1025A000FB1800229A601823FB180022DA60182317
:1025B000FB1800211800FEF7E3FB031E04D0184BA4
:1025C0005021180000F02EF83B1D01221A603B1D1F
:1025D00000229A603B1D1800FEF722FD031E04D066
:1025E0000F4B5721180000F01DF8FEF70FFD0200F9
:1025F000FA2399001000FDF787FD03001800FDF78E
:1026000023FF0420FDF72EFF01235B42002200215F
:102610001800FDF7F3FEC046BD4616B080BDC046AB
:102620004C29000880B582B000AF78603960FEE7C1
:1026300080B582B000AF194B184A926901210A4354
:102640009A61164B9B69012213407B607B68134B98
:10265000124AD269802149050A43DA610F4BDA69CF
:1026600080235B0513403B603B6805235B420022EF
:1026700000211800FDF7C2FE02235B420022002168
:102680001800FDF7BBFE01235B4200220021180069
:10269000FDF7B4FEC046BD4602B080BD001002404A
:1026A00080B58AB000AF78607B681A688023DB054C
:1026B0009A4230D1264B264AD26901210A43DA6177
:1026C000234BDB69012213403B613B691423FB1858
:1026D00001221A601423FB1802225A601423FB18EB
:1026E00000229A601423FB180022DA601423FB18DE
:1026F00002221A611423FA189023DB051100180036
:10270000FDF7D6FE002200210F20FDF777FE0F20F7
:10271000FDF78AFE18E07B681B680E4A934213D1CE
:102720000B4B0B4AD26902210A43DA61084BDB6981
:1027300002221340FB60FB68002200211020FDF7FD
:102740005DFE1020FDF770FEC046BD460AB080BD9C
:10275000001002400004004080B500AFC046BD46F6
:1027600080BD80B500AFFEE780B500AFC046BD4676
:1027700080BD80B500AFC046BD4680BD80B500AF0E
:10278000FDF77EFDFDF788FEC046BD4680BD00001A
:1027900080B500AF034B1800FEF73CFEC046BD46B7
:1027A00080BDC046FC01002080B500AF034B18007F
:1027B000FEF730FEC046BD4680BDC0468400002006
:1027C00080B500AF034B1800FEF724FEC046BD469F
:1027D00080BDC0463C02002080B500AF1A4B1A4AAB
:1027E000126801210A431A60174B174A52681749A9
:1027F0000A405A60144B144A126815490A401A607C
:10280000114B114A126813490A401A600E4B0E4AC6
:10281000526811490A405A600B4B0B4AD26A0F2189
:102820008A43DA62084B084A126B0C490A401A6361
:10283000054B054A526B01218A435A63024B002221
:102840009A60C046BD4680BD001002400CB8FFF83B
:10285000FFFFF6FEFFFFFBFFFFFFC0FFACFEFFFF29
:102860000D4885460D480E490E4A002302E0D45813
:10287000C4500433C4188C42F9D30B4A0B4C0023C8
:1028800001E013600432A242FBD3FFF7A5FF00F082
:1028900011F8FFF753FEFEE70020002000000020A3
:1028A000080000207429000808000020840200208D
:1028B000FEE7000070B500260C4D0D4C641BA41003
:1028C000A64209D1002600F019F80A4D0A4C641BF3
:1028D000A410A64205D170BDB300EB58984701364D
:1028E000EEE7B300EB5898470136F2E76C29000891
:1028F0006C2900086C29000870290008F8B5C0464A
:10290000F8BC08BC9E467047F8B5C046F8BC08BC89
:042910009E46704728
:1029140002030405060708090A0B0C0D0E0F10101C
:102924000102030405060708090A0B0C0D0E0F101B
:102934002E2E5C5372635C534952435F456E636F42
:1029440064652E63000000002E2E5C5372635C6D80
:1029540061696E2E630000000000000000000000AA
:08296400010203040607080943
:04296C00E900000876
:04297000C10000089A
:082974000100000000127A00CE
:040000050800286166
:00000001FF
