Archive member included to satisfy reference by file (symbol)

c:/program files (x86)/atollic/truestudio for stm32 9.0.1/armtools/bin/../lib/gcc/arm-atollic-eabi/6.3.1/../../../../arm-atollic-eabi/lib/armv6-m\libc_nano.a(lib_a-init.o)
                              startup\startup_stm32f051x8.o (__libc_init_array)
c:/program files (x86)/atollic/truestudio for stm32 9.0.1/armtools/bin/../lib/gcc/arm-atollic-eabi/6.3.1/../../../../arm-atollic-eabi/lib/armv6-m\libc_nano.a(lib_a-sprintf.o)
                              Src\SIRC_Decode.o (sprintf)
c:/program files (x86)/atollic/truestudio for stm32 9.0.1/armtools/bin/../lib/gcc/arm-atollic-eabi/6.3.1/../../../../arm-atollic-eabi/lib/armv6-m\libc_nano.a(lib_a-impure.o)
                              c:/program files (x86)/atollic/truestudio for stm32 9.0.1/armtools/bin/../lib/gcc/arm-atollic-eabi/6.3.1/../../../../arm-atollic-eabi/lib/armv6-m\libc_nano.a(lib_a-sprintf.o) (_impure_ptr)
c:/program files (x86)/atollic/truestudio for stm32 9.0.1/armtools/bin/../lib/gcc/arm-atollic-eabi/6.3.1/../../../../arm-atollic-eabi/lib/armv6-m\libc_nano.a(lib_a-nano-svfprintf.o)
                              c:/program files (x86)/atollic/truestudio for stm32 9.0.1/armtools/bin/../lib/gcc/arm-atollic-eabi/6.3.1/../../../../arm-atollic-eabi/lib/armv6-m\libc_nano.a(lib_a-sprintf.o) (_svfprintf_r)
c:/program files (x86)/atollic/truestudio for stm32 9.0.1/armtools/bin/../lib/gcc/arm-atollic-eabi/6.3.1/../../../../arm-atollic-eabi/lib/armv6-m\libc_nano.a(lib_a-nano-vfprintf_i.o)
                              c:/program files (x86)/atollic/truestudio for stm32 9.0.1/armtools/bin/../lib/gcc/arm-atollic-eabi/6.3.1/../../../../arm-atollic-eabi/lib/armv6-m\libc_nano.a(lib_a-nano-svfprintf.o) (_printf_i)
c:/program files (x86)/atollic/truestudio for stm32 9.0.1/armtools/bin/../lib/gcc/arm-atollic-eabi/6.3.1/../../../../arm-atollic-eabi/lib/armv6-m\libc_nano.a(lib_a-memchr-stub.o)
                              c:/program files (x86)/atollic/truestudio for stm32 9.0.1/armtools/bin/../lib/gcc/arm-atollic-eabi/6.3.1/../../../../arm-atollic-eabi/lib/armv6-m\libc_nano.a(lib_a-nano-svfprintf.o) (memchr)
c:/program files (x86)/atollic/truestudio for stm32 9.0.1/armtools/bin/../lib/gcc/arm-atollic-eabi/6.3.1/../../../../arm-atollic-eabi/lib/armv6-m\libc_nano.a(lib_a-memcpy-stub.o)
                              c:/program files (x86)/atollic/truestudio for stm32 9.0.1/armtools/bin/../lib/gcc/arm-atollic-eabi/6.3.1/../../../../arm-atollic-eabi/lib/armv6-m\libc_nano.a(lib_a-nano-svfprintf.o) (memcpy)
c:/program files (x86)/atollic/truestudio for stm32 9.0.1/armtools/bin/../lib/gcc/arm-atollic-eabi/6.3.1/../../../../arm-atollic-eabi/lib/armv6-m\libc_nano.a(lib_a-memmove.o)
                              c:/program files (x86)/atollic/truestudio for stm32 9.0.1/armtools/bin/../lib/gcc/arm-atollic-eabi/6.3.1/../../../../arm-atollic-eabi/lib/armv6-m\libc_nano.a(lib_a-nano-svfprintf.o) (memmove)
c:/program files (x86)/atollic/truestudio for stm32 9.0.1/armtools/bin/../lib/gcc/arm-atollic-eabi/6.3.1/../../../../arm-atollic-eabi/lib/armv6-m\libc_nano.a(lib_a-nano-freer.o)
                              c:/program files (x86)/atollic/truestudio for stm32 9.0.1/armtools/bin/../lib/gcc/arm-atollic-eabi/6.3.1/../../../../arm-atollic-eabi/lib/armv6-m\libc_nano.a(lib_a-nano-svfprintf.o) (_free_r)
c:/program files (x86)/atollic/truestudio for stm32 9.0.1/armtools/bin/../lib/gcc/arm-atollic-eabi/6.3.1/../../../../arm-atollic-eabi/lib/armv6-m\libc_nano.a(lib_a-nano-mallocr.o)
                              c:/program files (x86)/atollic/truestudio for stm32 9.0.1/armtools/bin/../lib/gcc/arm-atollic-eabi/6.3.1/../../../../arm-atollic-eabi/lib/armv6-m\libc_nano.a(lib_a-nano-svfprintf.o) (_malloc_r)
c:/program files (x86)/atollic/truestudio for stm32 9.0.1/armtools/bin/../lib/gcc/arm-atollic-eabi/6.3.1/../../../../arm-atollic-eabi/lib/armv6-m\libc_nano.a(lib_a-nano-reallocr.o)
                              c:/program files (x86)/atollic/truestudio for stm32 9.0.1/armtools/bin/../lib/gcc/arm-atollic-eabi/6.3.1/../../../../arm-atollic-eabi/lib/armv6-m\libc_nano.a(lib_a-nano-svfprintf.o) (_realloc_r)
c:/program files (x86)/atollic/truestudio for stm32 9.0.1/armtools/bin/../lib/gcc/arm-atollic-eabi/6.3.1/../../../../arm-atollic-eabi/lib/armv6-m\libc_nano.a(lib_a-sbrkr.o)
                              c:/program files (x86)/atollic/truestudio for stm32 9.0.1/armtools/bin/../lib/gcc/arm-atollic-eabi/6.3.1/../../../../arm-atollic-eabi/lib/armv6-m\libc_nano.a(lib_a-nano-mallocr.o) (_sbrk_r)
c:/program files (x86)/atollic/truestudio for stm32 9.0.1/armtools/bin/../lib/gcc/arm-atollic-eabi/6.3.1/../../../../arm-atollic-eabi/lib/armv6-m\libc_nano.a(lib_a-mlock.o)
                              c:/program files (x86)/atollic/truestudio for stm32 9.0.1/armtools/bin/../lib/gcc/arm-atollic-eabi/6.3.1/../../../../arm-atollic-eabi/lib/armv6-m\libc_nano.a(lib_a-nano-freer.o) (__malloc_lock)
c:/program files (x86)/atollic/truestudio for stm32 9.0.1/armtools/bin/../lib/gcc/arm-atollic-eabi/6.3.1/../../../../arm-atollic-eabi/lib/armv6-m\libc_nano.a(lib_a-nano-msizer.o)
                              c:/program files (x86)/atollic/truestudio for stm32 9.0.1/armtools/bin/../lib/gcc/arm-atollic-eabi/6.3.1/../../../../arm-atollic-eabi/lib/armv6-m\libc_nano.a(lib_a-nano-reallocr.o) (_malloc_usable_size_r)
c:/program files (x86)/atollic/truestudio for stm32 9.0.1/armtools/bin/../lib/gcc/arm-atollic-eabi/6.3.1/../../../../arm-atollic-eabi/lib/armv6-m\libc_nano.a(lib_a-reent.o)
                              c:/program files (x86)/atollic/truestudio for stm32 9.0.1/armtools/bin/../lib/gcc/arm-atollic-eabi/6.3.1/../../../../arm-atollic-eabi/lib/armv6-m\libc_nano.a(lib_a-sbrkr.o) (errno)
c:/program files (x86)/atollic/truestudio for stm32 9.0.1/armtools/bin/../lib/gcc/arm-atollic-eabi/6.3.1/armv6-m\libgcc.a(_udivsi3.o)
                              Drivers\STM32F0xx_HAL_Driver\Src\stm32f0xx_hal.o (__aeabi_uidiv)
c:/program files (x86)/atollic/truestudio for stm32 9.0.1/armtools/bin/../lib/gcc/arm-atollic-eabi/6.3.1/armv6-m\libgcc.a(_dvmd_tls.o)
                              c:/program files (x86)/atollic/truestudio for stm32 9.0.1/armtools/bin/../lib/gcc/arm-atollic-eabi/6.3.1/armv6-m\libgcc.a(_udivsi3.o) (__aeabi_idiv0)
c:/program files (x86)/atollic/truestudio for stm32 9.0.1/armtools/bin/../lib/gcc/arm-atollic-eabi/6.3.1/../../../../arm-atollic-eabi/lib/armv6-m\libnosys.a(sbrk.o)
                              c:/program files (x86)/atollic/truestudio for stm32 9.0.1/armtools/bin/../lib/gcc/arm-atollic-eabi/6.3.1/../../../../arm-atollic-eabi/lib/armv6-m\libc_nano.a(lib_a-sbrkr.o) (_sbrk)

Allocating common symbols
Common symbol       size              file

errno               0x4               c:/program files (x86)/atollic/truestudio for stm32 9.0.1/armtools/bin/../lib/gcc/arm-atollic-eabi/6.3.1/../../../../arm-atollic-eabi/lib/armv6-m\libc_nano.a(lib_a-reent.o)
BUFFER_Display      0xc8              Src\SIRC_Decode.o
htim17              0x40              Src\IR_Common.o
uwTick              0x4               Drivers\STM32F0xx_HAL_Driver\Src\stm32f0xx_hal.o
pFlash              0x20              Drivers\STM32F0xx_HAL_Driver\Src\stm32f0xx_hal_flash.o
htim3               0x40              Src\IR_Common.o
huart1              0x70              Src\IR_Common.o
aSIRC_CaptureValue  0xc8              Src\IR_Common.o
htim2               0x40              Src\IR_Common.o
htim16              0x40              Src\IR_Common.o
aSIRCFramePWForm    0x8               Src\SIRC_Encode.o

Discarded input sections

 .text          0x00000000        0x0 c:/program files (x86)/atollic/truestudio for stm32 9.0.1/armtools/bin/../lib/gcc/arm-atollic-eabi/6.3.1/armv6-m/crti.o
 .data          0x00000000        0x0 c:/program files (x86)/atollic/truestudio for stm32 9.0.1/armtools/bin/../lib/gcc/arm-atollic-eabi/6.3.1/armv6-m/crti.o
 .bss           0x00000000        0x0 c:/program files (x86)/atollic/truestudio for stm32 9.0.1/armtools/bin/../lib/gcc/arm-atollic-eabi/6.3.1/armv6-m/crti.o
 .data          0x00000000        0x4 c:/program files (x86)/atollic/truestudio for stm32 9.0.1/armtools/bin/../lib/gcc/arm-atollic-eabi/6.3.1/armv6-m/crtbegin.o
 .text          0x00000000        0x0 Drivers\STM32F0xx_HAL_Driver\Src\stm32f0xx_hal.o
 .data          0x00000000        0x0 Drivers\STM32F0xx_HAL_Driver\Src\stm32f0xx_hal.o
 .bss           0x00000000        0x0 Drivers\STM32F0xx_HAL_Driver\Src\stm32f0xx_hal.o
 .text.HAL_DeInit
                0x00000000       0x40 Drivers\STM32F0xx_HAL_Driver\Src\stm32f0xx_hal.o
 .text.HAL_MspInit
                0x00000000        0xa Drivers\STM32F0xx_HAL_Driver\Src\stm32f0xx_hal.o
 .text.HAL_MspDeInit
                0x00000000        0xa Drivers\STM32F0xx_HAL_Driver\Src\stm32f0xx_hal.o
 .text.HAL_Delay
                0x00000000       0x3a Drivers\STM32F0xx_HAL_Driver\Src\stm32f0xx_hal.o
 .text.HAL_SuspendTick
                0x00000000       0x1c Drivers\STM32F0xx_HAL_Driver\Src\stm32f0xx_hal.o
 .text.HAL_ResumeTick
Memory Configuration

Name             Origin             Length             Attributes
RAM              0x20000000         0x00002000         xrw
FLASH            0x08000000         0x00010000         xr
*default*        0x00000000         0xffffffff

Linker script and memory map

LOAD c:/program files (x86)/atollic/truestudio for stm32 9.0.1/armtools/bin/../lib/gcc/arm-atollic-eabi/6.3.1/armv6-m/crti.o
LOAD c:/program files (x86)/atollic/truestudio for stm32 9.0.1/armtools/bin/../lib/gcc/arm-atollic-eabi/6.3.1/armv6-m/crtbegin.o
LOAD Drivers\STM32F0xx_HAL_Driver\Src\stm32f0xx_hal.o
LOAD Drivers\STM32F0xx_HAL_Driver\Src\stm32f0xx_hal_cortex.o
LOAD Drivers\STM32F0xx_HAL_Driver\Src\stm32f0xx_hal_dma.o
LOAD Drivers\STM32F0xx_HAL_Driver\Src\stm32f0xx_hal_flash.o
LOAD Drivers\STM32F0xx_HAL_Driver\Src\stm32f0xx_hal_flash_ex.o
LOAD Drivers\STM32F0xx_HAL_Driver\Src\stm32f0xx_hal_gpio.o
LOAD Drivers\STM32F0xx_HAL_Driver\Src\stm32f0xx_hal_i2c.o
LOAD Drivers\STM32F0xx_HAL_Driver\Src\stm32f0xx_hal_i2c_ex.o
LOAD Drivers\STM32F0xx_HAL_Driver\Src\stm32f0xx_hal_pwr.o
LOAD Drivers\STM32F0xx_HAL_Driver\Src\stm32f0xx_hal_pwr_ex.o
LOAD Drivers\STM32F0xx_HAL_Driver\Src\stm32f0xx_hal_rcc.o
LOAD Drivers\STM32F0xx_HAL_Driver\Src\stm32f0xx_hal_rcc_ex.o
LOAD Drivers\STM32F0xx_HAL_Driver\Src\stm32f0xx_hal_tim.o
LOAD Drivers\STM32F0xx_HAL_Driver\Src\stm32f0xx_hal_tim_ex.o
LOAD Drivers\STM32F0xx_HAL_Driver\Src\stm32f0xx_hal_uart.o
LOAD Drivers\STM32F0xx_HAL_Driver\Src\stm32f0xx_hal_uart_ex.o
LOAD Src\IR_Common.o
LOAD Src\SIRC_Decode.o
LOAD Src\SIRC_Encode.o
LOAD Src\main.o
LOAD Src\stm32f0xx_hal_msp.o
LOAD Src\stm32f0xx_it.o
LOAD Src\system_stm32f0xx.o
LOAD startup\startup_stm32f051x8.o
                0x00000080                malloc_getpagesize_P = 0x80
START GROUP
LOAD c:/program files (x86)/atollic/truestudio for stm32 9.0.1/armtools/bin/../lib/gcc/arm-atollic-eabi/6.3.1/../../../../arm-atollic-eabi/lib/armv6-m\libc_nano.a
LOAD c:/program files (x86)/atollic/truestudio for stm32 9.0.1/armtools/bin/../lib/gcc/arm-atollic-eabi/6.3.1/../../../../arm-atollic-eabi/lib/armv6-m\libm.a
END GROUP
START GROUP
LOAD c:/program files (x86)/atollic/truestudio for stm32 9.0.1/armtools/bin/../lib/gcc/arm-atollic-eabi/6.3.1/armv6-m\libgcc.a
LOAD c:/program files (x86)/atollic/truestudio for stm32 9.0.1/armtools/bin/../lib/gcc/arm-atollic-eabi/6.3.1/../../../../arm-atollic-eabi/lib/armv6-m\libc_nano.a
END GROUP
START GROUP
LOAD c:/program files (x86)/atollic/truestudio for stm32 9.0.1/armtools/bin/../lib/gcc/arm-atollic-eabi/6.3.1/armv6-m\libgcc.a
LOAD c:/program files (x86)/atollic/truestudio for stm32 9.0.1/armtools/bin/../lib/gcc/arm-atollic-eabi/6.3.1/../../../../arm-atollic-eabi/lib/armv6-m\libc_nano.a
LOAD c:/program files (x86)/atollic/truestudio for stm32 9.0.1/armtools/bin/../lib/gcc/arm-atollic-eabi/6.3.1/../../../../arm-atollic-eabi/lib/armv6-m\libnosys.a
END GROUP
START GROUP
LOAD c:/program files (x86)/atollic/truestudio for stm32 9.0.1/armtools/bin/../lib/gcc/arm-atollic-eabi/6.3.1/armv6-m\libgcc.a
LOAD c:/program files (x86)/atollic/truestudio for stm32 9.0.1/armtools/bin/../lib/gcc/arm-atollic-eabi/6.3.1/../../../../arm-atollic-eabi/lib/armv6-m\libc_nano.a
LOAD c:/program files (x86)/atollic/truestudio for stm32 9.0.1/armtools/bin/../lib/gcc/arm-atollic-eabi/6.3.1/../../../../arm-atollic-eabi/lib/armv6-m\libnosys.a
END GROUP
LOAD c:/program files (x86)/atollic/truestudio for stm32 9.0.1/armtools/bin/../lib/gcc/arm-atollic-eabi/6.3.1/armv6-m/crtend.o
LOAD c:/program files (x86)/atollic/truestudio for stm32 9.0.1/armtools/bin/../lib/gcc/arm-atollic-eabi/6.3.1/armv6-m/crtn.o
                0x20002000                _estack = 0x20002000
                0x00000200                _Min_Heap_Size = 0x200
                0x00000400                _Min_Stack_Size = 0x400

.isr_vector     0x08000000       0xc0
                0x08000000                . = ALIGN (0x4)
 *(.isr_vector)
 .isr_vector    0x08000000       0xc0 startup\startup_stm32f051x8.o
                0x08000000                g_pfnVectors
                0x080000c0                . = ALIGN (0x4)

.text           0x080000c0     0x2854
                0x080000c0                . = ALIGN (0x4)
 *(.text)
 .text          0x080000c0       0x48 c:/program files (x86)/atollic/truestudio for stm32 9.0.1/armtools/bin/../lib/gcc/arm-atollic-eabi/6.3.1/armv6-m/crtbegin.o
 .text          0x08000108      0x114 c:/program files (x86)/atollic/truestudio for stm32 9.0.1/armtools/bin/../lib/gcc/arm-atollic-eabi/6.3.1/armv6-m\libgcc.a(_udivsi3.o)
                0x08000108                __aeabi_uidiv
                0x08000108                __udivsi3
                0x08000214                __aeabi_uidivmod
 .text          0x0800021c        0x4 c:/program files (x86)/atollic/truestudio for stm32 9.0.1/armtools/bin/../lib/gcc/arm-atollic-eabi/6.3.1/armv6-m\libgcc.a(_dvmd_tls.o)
                0x0800021c                __aeabi_idiv0
                0x0800021c                __aeabi_ldiv0
 *(.text*)
 .text.HAL_Init
                0x08000220       0x28 Drivers\STM32F0xx_HAL_Driver\Src\stm32f0xx_hal.o
                0x08000220                HAL_Init
 .text.HAL_InitTick
                0x08000248       0x38 Drivers\STM32F0xx_HAL_Driver\Src\stm32f0xx_hal.o
                0x08000248                HAL_InitTick
 .text.HAL_IncTick
                0x08000280       0x18 Drivers\STM32F0xx_HAL_Driver\Src\stm32f0xx_hal.o
                0x08000280                HAL_IncTick
 .text.HAL_GetTick
                0x08000298       0x14 Drivers\STM32F0xx_HAL_Driver\Src\stm32f0xx_hal.o
                0x08000298                HAL_GetTick
 .text.NVIC_EnableIRQ
                0x080002ac       0x2c Drivers\STM32F0xx_HAL_Driver\Src\stm32f0xx_hal_cortex.o
 .text.NVIC_SetPriority
                0x080002d8       0xdc Drivers\STM32F0xx_HAL_Driver\Src\stm32f0xx_hal_cortex.o
 .text.SysTick_Config
                0x080003b4       0x48 Drivers\STM32F0xx_HAL_Driver\Src\stm32f0xx_hal_cortex.o
 .text.HAL_NVIC_SetPriority
                0x080003fc       0x2c Drivers\STM32F0xx_HAL_Driver\Src\stm32f0xx_hal_cortex.o
                0x080003fc                HAL_NVIC_SetPriority
 .text.HAL_NVIC_EnableIRQ
                0x08000428       0x20 Drivers\STM32F0xx_HAL_Driver\Src\stm32f0xx_hal_cortex.o
                0x08000428                HAL_NVIC_EnableIRQ
 .text.HAL_SYSTICK_Config
                0x08000448       0x1a Drivers\STM32F0xx_HAL_Driver\Src\stm32f0xx_hal_cortex.o
                0x08000448                HAL_SYSTICK_Config
 *fill*         0x08000462        0x2 
 .text.HAL_SYSTICK_CLKSourceConfig
                0x08000464       0x34 Drivers\STM32F0xx_HAL_Driver\Src\stm32f0xx_hal_cortex.o
                0x08000464                HAL_SYSTICK_CLKSourceConfig
 .text.HAL_SYSTICK_IRQHandler
                0x08000498        0xe Drivers\STM32F0xx_HAL_Driver\Src\stm32f0xx_hal_cortex.o
                0x08000498                HAL_SYSTICK_IRQHandler
 .text.HAL_SYSTICK_Callback
                0x080004a6        0xa Drivers\STM32F0xx_HAL_Driver\Src\stm32f0xx_hal_cortex.o
                0x080004a6                HAL_SYSTICK_Callback
 .text.HAL_GPIO_Init
                0x080004b0      0x2e8 Drivers\STM32F0xx_HAL_Driver\Src\stm32f0xx_hal_gpio.o
                0x080004b0                HAL_GPIO_Init
 .text.HAL_RCC_OscConfig
                0x08000798      0x5e8 Drivers\STM32F0xx_HAL_Driver\Src\stm32f0xx_hal_rcc.o
                0x08000798                HAL_RCC_OscConfig
 .text.HAL_RCC_ClockConfig
                0x08000d80      0x1cc Drivers\STM32F0xx_HAL_Driver\Src\stm32f0xx_hal_rcc.o
                0x08000d80                HAL_RCC_ClockConfig
 .text.HAL_RCC_GetSysClockFreq
                0x08000f4c       0xc0 Drivers\STM32F0xx_HAL_Driver\Src\stm32f0xx_hal_rcc.o
                0x08000f4c                HAL_RCC_GetSysClockFreq
 .text.HAL_RCC_GetHCLKFreq
                0x0800100c       0x14 Drivers\STM32F0xx_HAL_Driver\Src\stm32f0xx_hal_rcc.o
                0x0800100c                HAL_RCC_GetHCLKFreq
 .text.HAL_RCCEx_PeriphCLKConfig
                0x08001020      0x1bc Drivers\STM32F0xx_HAL_Driver\Src\stm32f0xx_hal_rcc_ex.o
                0x08001020                HAL_RCCEx_PeriphCLKConfig
 .text.HAL_TIM_Base_Init
                0x080011dc       0x58 Drivers\STM32F0xx_HAL_Driver\Src\stm32f0xx_hal_tim.o
                0x080011dc                HAL_TIM_Base_Init
 .text.HAL_TIM_Base_Start_IT
                0x08001234       0x32 Drivers\STM32F0xx_HAL_Driver\Src\stm32f0xx_hal_tim.o
                0x08001234                HAL_TIM_Base_Start_IT
 *fill*         0x08001266        0x2 
 .text.HAL_TIM_Base_Stop_IT
                0x08001268       0x54 Drivers\STM32F0xx_HAL_Driver\Src\stm32f0xx_hal_tim.o
                0x08001268                HAL_TIM_Base_Stop_IT
 .text.HAL_TIM_OC_Init
                0x080012bc       0x58 Drivers\STM32F0xx_HAL_Driver\Src\stm32f0xx_hal_tim.o
                0x080012bc                HAL_TIM_OC_Init
 .text.HAL_TIM_OC_MspInit
                0x08001314       0x10 Drivers\STM32F0xx_HAL_Driver\Src\stm32f0xx_hal_tim.o
                0x08001314                HAL_TIM_OC_MspInit
 .text.HAL_TIM_OC_Start
                0x08001324       0x88 Drivers\STM32F0xx_HAL_Driver\Src\stm32f0xx_hal_tim.o
                0x08001324                HAL_TIM_OC_Start
 .text.HAL_TIM_PWM_Init
                0x080013ac       0x58 Drivers\STM32F0xx_HAL_Driver\Src\stm32f0xx_hal_tim.o
                0x080013ac                HAL_TIM_PWM_Init
 .text.HAL_TIM_PWM_MspInit
                0x08001404       0x10 Drivers\STM32F0xx_HAL_Driver\Src\stm32f0xx_hal_tim.o
                0x08001404                HAL_TIM_PWM_MspInit
 .text.HAL_TIM_IRQHandler
                0x08001414      0x22c Drivers\STM32F0xx_HAL_Driver\Src\stm32f0xx_hal_tim.o
                0x08001414                HAL_TIM_IRQHandler
 .text.HAL_TIM_OC_ConfigChannel
                0x08001640       0x9c Drivers\STM32F0xx_HAL_Driver\Src\stm32f0xx_hal_tim.o
                0x08001640                HAL_TIM_OC_ConfigChannel
 .text.HAL_TIM_PWM_ConfigChannel
                0x080016dc      0x170 Drivers\STM32F0xx_HAL_Driver\Src\stm32f0xx_hal_tim.o
                0x080016dc                HAL_TIM_PWM_ConfigChannel
 .text.HAL_TIM_ReadCapturedValue
                0x0800184c       0x76 Drivers\STM32F0xx_HAL_Driver\Src\stm32f0xx_hal_tim.o
                0x0800184c                HAL_TIM_ReadCapturedValue
 .text.HAL_TIM_OC_DelayElapsedCallback
                0x080018c2       0x10 Drivers\STM32F0xx_HAL_Driver\Src\stm32f0xx_hal_tim.o
                0x080018c2                HAL_TIM_OC_DelayElapsedCallback
 .text.HAL_TIM_PWM_PulseFinishedCallback
                0x080018d2       0x10 Drivers\STM32F0xx_HAL_Driver\Src\stm32f0xx_hal_tim.o
                0x080018d2                HAL_TIM_PWM_PulseFinishedCallback
 .text.HAL_TIM_TriggerCallback
                0x080018e2       0x10 Drivers\STM32F0xx_HAL_Driver\Src\stm32f0xx_hal_tim.o
                0x080018e2                HAL_TIM_TriggerCallback
 *fill*         0x080018f2        0x2 
 .text.TIM_Base_SetConfig
                0x080018f4      0x104 Drivers\STM32F0xx_HAL_Driver\Src\stm32f0xx_hal_tim.o
                0x080018f4                TIM_Base_SetConfig
 .text.TIM_OC1_SetConfig
                0x080019f8      0x11c Drivers\STM32F0xx_HAL_Driver\Src\stm32f0xx_hal_tim.o
 .text.TIM_OC2_SetConfig
                0x08001b14      0x114 Drivers\STM32F0xx_HAL_Driver\Src\stm32f0xx_hal_tim.o
                0x08001b14                TIM_OC2_SetConfig
 .text.TIM_OC3_SetConfig
                0x08001c28      0x118 Drivers\STM32F0xx_HAL_Driver\Src\stm32f0xx_hal_tim.o
 .text.TIM_OC4_SetConfig
                0x08001d40       0xe0 Drivers\STM32F0xx_HAL_Driver\Src\stm32f0xx_hal_tim.o
 .text.TIM_CCxChannelCmd
                0x08001e20       0x42 Drivers\STM32F0xx_HAL_Driver\Src\stm32f0xx_hal_tim.o
                0x08001e20                TIM_CCxChannelCmd
 *fill*         0x08001e62        0x2 
 .text.HAL_TIMEx_ConfigBreakDeadTime
                0x08001e64       0xdc Drivers\STM32F0xx_HAL_Driver\Src\stm32f0xx_hal_tim_ex.o
                0x08001e64                HAL_TIMEx_ConfigBreakDeadTime
 .text.HAL_TIMEx_CommutationCallback
                0x08001f40       0x10 Drivers\STM32F0xx_HAL_Driver\Src\stm32f0xx_hal_tim_ex.o
                0x08001f40                HAL_TIMEx_CommutationCallback
 .text.HAL_TIMEx_BreakCallback
                0x08001f50       0x10 Drivers\STM32F0xx_HAL_Driver\Src\stm32f0xx_hal_tim_ex.o
                0x08001f50                HAL_TIMEx_BreakCallback
 .text.HAL_TIM_IC_CaptureCallback
                0x08001f60      0x110 Src\IR_Common.o
                0x08001f60                HAL_TIM_IC_CaptureCallback
 .text.HAL_TIM_PeriodElapsedCallback
                0x08002070       0x78 Src\IR_Common.o
                0x08002070                HAL_TIM_PeriodElapsedCallback
 .text.TIM_ForcedOC1Config
                0x080020e8       0x34 Src\IR_Common.o
                0x080020e8                TIM_ForcedOC1Config
 .text.MX_TIM16_Init
                0x0800211c      0x128 Src\SIRC_Encode.o
 .text.MX_TIM17_Init
                0x08002244      0x114 Src\SIRC_Encode.o
 .text.MX_GPIO_Init
                0x08002358       0x5c Src\SIRC_Encode.o
 .text.SIRC_Encode_Init
                0x080023b4       0x1a Src\SIRC_Encode.o
                0x080023b4                SIRC_Encode_Init
 *fill*         0x080023ce        0x2 
 .text.SIRC_Encode_SignalGenerate
                0x080023d0      0x16c Src\SIRC_Encode.o
                0x080023d0                SIRC_Encode_SignalGenerate
 .text.main     0x0800253c       0x12 Src\main.o
                0x0800253c                main
 *fill*         0x0800254e        0x2 
 .text.SystemClock_Config
                0x08002550       0xd4 Src\main.o
                0x08002550                SystemClock_Config
 .text._Error_Handler
                0x08002624        0xc Src\main.o
                0x08002624                _Error_Handler
 .text.HAL_MspInit
                0x08002630       0x70 Src\stm32f0xx_hal_msp.o
                0x08002630                HAL_MspInit
 .text.HAL_TIM_Base_MspInit
                0x080026a0       0xb8 Src\stm32f0xx_hal_msp.o
                0x080026a0                HAL_TIM_Base_MspInit
 .text.NMI_Handler
                0x08002758        0xa Src\stm32f0xx_it.o
                0x08002758                NMI_Handler
 .text.HardFault_Handler
                0x08002762        0x6 Src\stm32f0xx_it.o
                0x08002762                HardFault_Handler
 .text.SVC_Handler
                0x08002768        0xa Src\stm32f0xx_it.o
                0x08002768                SVC_Handler
 .text.PendSV_Handler
                0x08002772        0xa Src\stm32f0xx_it.o
                0x08002772                PendSV_Handler
 .text.SysTick_Handler
                0x0800277c       0x12 Src\stm32f0xx_it.o
                0x0800277c                SysTick_Handler
 *fill*         0x0800278e        0x2 
 .text.TIM2_IRQHandler
                0x08002790       0x18 Src\stm32f0xx_it.o
                0x08002790                TIM2_IRQHandler
 .text.TIM3_IRQHandler
                0x080027a8       0x18 Src\stm32f0xx_it.o
                0x080027a8                TIM3_IRQHandler
 .text.TIM16_IRQHandler
                0x080027c0       0x18 Src\stm32f0xx_it.o
                0x080027c0                TIM16_IRQHandler
 .text.SystemInit
                0x080027d8       0x88 Src\system_stm32f0xx.o
                0x080027d8                SystemInit
 .text.Reset_Handler
                0x08002860       0x50 startup\startup_stm32f051x8.o
                0x08002860                Reset_Handler
 .text.Default_Handler
                0x080028b0        0x2 startup\startup_stm32f051x8.o
                0x080028b0                TIM1_CC_IRQHandler
                0x080028b0                TSC_IRQHandler
                0x080028b0                ADC1_COMP_IRQHandler
                0x080028b0                PVD_IRQHandler
                0x080028b0                I2C1_IRQHandler
                0x080028b0                RCC_CRS_IRQHandler
                0x080028b0                SPI1_IRQHandler
                0x080028b0                TIM6_DAC_IRQHandler
                0x080028b0                EXTI2_3_IRQHandler
                0x080028b0                I2C2_IRQHandler
                0x080028b0                TIM17_IRQHandler
                0x080028b0                CEC_CAN_IRQHandler
                0x080028b0                RTC_IRQHandler
                0x080028b0                EXTI4_15_IRQHandler
                0x080028b0                DMA1_Channel1_IRQHandler
                0x080028b0                Default_Handler
                0x080028b0                TIM14_IRQHandler
                0x080028b0                DMA1_Channel4_5_IRQHandler
                0x080028b0                TIM15_IRQHandler
                0x080028b0                EXTI0_1_IRQHandler
                0x080028b0                SPI2_IRQHandler
                0x080028b0                WWDG_IRQHandler
                0x080028b0                DMA1_Channel2_3_IRQHandler
                0x080028b0                USART2_IRQHandler
                0x080028b0                FLASH_IRQHandler
                0x080028b0                USART1_IRQHandler
                0x080028b0                TIM1_BRK_UP_TRG_COM_IRQHandler
 *fill*         0x080028b2        0x2 
 .text.__libc_init_array
                0x080028b4       0x48 c:/program files (x86)/atollic/truestudio for stm32 9.0.1/armtools/bin/../lib/gcc/arm-atollic-eabi/6.3.1/../../../../arm-atollic-eabi/lib/armv6-m\libc_nano.a(lib_a-init.o)
                0x080028b4                __libc_init_array
 *(.glue_7)
 .glue_7        0x080028fc        0x0 linker stubs
 *(.glue_7t)
 .glue_7t       0x080028fc        0x0 linker stubs
 *(.eh_frame)
 .eh_frame      0x080028fc        0x0 c:/program files (x86)/atollic/truestudio for stm32 9.0.1/armtools/bin/../lib/gcc/arm-atollic-eabi/6.3.1/armv6-m/crtbegin.o
 *(.init)
 .init          0x080028fc        0x4 c:/program files (x86)/atollic/truestudio for stm32 9.0.1/armtools/bin/../lib/gcc/arm-atollic-eabi/6.3.1/armv6-m/crti.o
                0x080028fc                _init
 .init          0x08002900        0x8 c:/program files (x86)/atollic/truestudio for stm32 9.0.1/armtools/bin/../lib/gcc/arm-atollic-eabi/6.3.1/armv6-m/crtn.o
 *(.fini)
 .fini          0x08002908        0x4 c:/program files (x86)/atollic/truestudio for stm32 9.0.1/armtools/bin/../lib/gcc/arm-atollic-eabi/6.3.1/armv6-m/crti.o
                0x08002908                _fini
 .fini          0x0800290c        0x8 c:/program files (x86)/atollic/truestudio for stm32 9.0.1/armtools/bin/../lib/gcc/arm-atollic-eabi/6.3.1/armv6-m/crtn.o
                0x08002914                . = ALIGN (0x4)
                0x08002914                _etext = .

.vfp11_veneer   0x08002914        0x0
 .vfp11_veneer  0x08002914        0x0 linker stubs

.v4_bx          0x08002914        0x0
 .v4_bx         0x08002914        0x0 linker stubs

.iplt           0x08002914        0x0
 .iplt          0x08002914        0x0 c:/program files (x86)/atollic/truestudio for stm32 9.0.1/armtools/bin/../lib/gcc/arm-atollic-eabi/6.3.1/armv6-m/crtbegin.o

.rodata         0x08002914       0x58
                0x08002914                . = ALIGN (0x4)
 *(.rodata)
 .rodata        0x08002914       0x20 Drivers\STM32F0xx_HAL_Driver\Src\stm32f0xx_hal_rcc.o
 .rodata        0x08002934       0x15 Src\SIRC_Encode.o
 *fill*         0x08002949        0x3 
 .rodata        0x0800294c        0xe Src\main.o
 *(.rodata*)
 *fill*         0x0800295a        0x2 
 .rodata.AHBPrescTable
                0x0800295c       0x10 Src\system_stm32f0xx.o
                0x0800295c                AHBPrescTable
                0x0800296c                . = ALIGN (0x4)

.rel.dyn        0x0800296c        0x0
 .rel.iplt      0x0800296c        0x0 c:/program files (x86)/atollic/truestudio for stm32 9.0.1/armtools/bin/../lib/gcc/arm-atollic-eabi/6.3.1/armv6-m/crtbegin.o

.ARM.extab
 *(.ARM.extab* .gnu.linkonce.armextab.*)

.ARM            0x0800296c        0x0
                0x0800296c                __exidx_start = .
 *(.ARM.exidx*)
                0x0800296c                __exidx_end = .

.preinit_array  0x0800296c        0x0
                0x0800296c                PROVIDE (__preinit_array_start, .)
 *(.preinit_array*)
                0x0800296c                PROVIDE (__preinit_array_end, .)

.init_array     0x0800296c        0x4
                0x0800296c                PROVIDE (__init_array_start, .)
 *(SORT(.init_array.*))
 *(.init_array*)
 .init_array    0x0800296c        0x4 c:/program files (x86)/atollic/truestudio for stm32 9.0.1/armtools/bin/../lib/gcc/arm-atollic-eabi/6.3.1/armv6-m/crtbegin.o
                0x08002970                PROVIDE (__init_array_end, .)

.fini_array     0x08002970        0x4
                [!provide]                PROVIDE (__fini_array_start, .)
 *(SORT(.fini_array.*))
 *(.fini_array*)
 .fini_array    0x08002970        0x4 c:/program files (x86)/atollic/truestudio for stm32 9.0.1/armtools/bin/../lib/gcc/arm-atollic-eabi/6.3.1/armv6-m/crtbegin.o
                [!provide]                PROVIDE (__fini_array_end, .)
                0x08002974                _sidata = LOADADDR (.data)

.data           0x20000000        0x8 load address 0x08002974
                0x20000000                . = ALIGN (0x4)
                0x20000000                _sdata = .
 *(.data)
 *(.data*)
 .data.SIRCSendOpCompleteFlag
                0x20000000        0x1 Src\SIRC_Encode.o
                0x20000000                SIRCSendOpCompleteFlag
 *fill*         0x20000001        0x3 
 .data.SystemCoreClock
                0x20000004        0x4 Src\system_stm32f0xx.o
                0x20000004                SystemCoreClock
                0x20000008                . = ALIGN (0x4)
                0x20000008                _edata = .

.igot.plt       0x20000008        0x0 load address 0x0800297c
 .igot.plt      0x20000008        0x0 c:/program files (x86)/atollic/truestudio for stm32 9.0.1/armtools/bin/../lib/gcc/arm-atollic-eabi/6.3.1/armv6-m/crtbegin.o
                0x20000008                . = ALIGN (0x4)

.bss            0x20000008      0x27c load address 0x0800297c
                0x20000008                _sbss = .
                0x20000008                __bss_start__ = _sbss
 *(.bss)
 .bss           0x20000008       0x1c c:/program files (x86)/atollic/truestudio for stm32 9.0.1/armtools/bin/../lib/gcc/arm-atollic-eabi/6.3.1/armv6-m/crtbegin.o
 *(.bss*)
 .bss.SIRC_DecodeState
                0x20000024        0x1 Src\IR_Common.o
                0x20000024                SIRC_DecodeState
 *fill*         0x20000025        0x1 
 .bss.SIRC_CounterData
                0x20000026        0x2 Src\IR_Common.o
                0x20000026                SIRC_CounterData
 .bss.SIRC_Repeat
                0x20000028        0x1 Src\IR_Common.o
                0x20000028                SIRC_Repeat
 .bss.SIRC_DataReady
                0x20000029        0x1 Src\IR_Common.o
                0x20000029                SIRC_DataReady
 .bss.TIMOUT_Counter
                0x2000002a        0x2 Src\IR_Common.o
                0x2000002a                TIMOUT_Counter
 .bss.IC_Falling
                0x2000002c        0x4 Src\IR_Common.o
                0x2000002c                IC_Falling
 .bss.IC_Rising
                0x20000030        0x4 Src\IR_Common.o
                0x20000030                IC_Rising
 .bss.IC_CaptureEdge
                0x20000034        0x4 Src\IR_Common.o
                0x20000034                IC_CaptureEdge
 .bss.SIRCFrameBinaryFormat
                0x20000038        0x2 Src\SIRC_Encode.o
                0x20000038                SIRCFrameBinaryFormat
 .bss.SIRCSendOpReadyFlag
                0x2000003a        0x1 Src\SIRC_Encode.o
                0x2000003a                SIRCSendOpReadyFlag
 .bss.SIRCBitsSentCounter
                0x2000003b        0x1 Src\SIRC_Encode.o
                0x2000003b                SIRCBitsSentCounter
 .bss.SIRCCodedFrameLastWordLength
                0x2000003c        0x1 Src\SIRC_Encode.o
                0x2000003c                SIRCCodedFrameLastWordLength
 .bss.SIRCNbWord
                0x2000003d        0x1 Src\SIRC_Encode.o
                0x2000003d                SIRCNbWord
 *(COMMON)
 *fill*         0x2000003e        0x2 
 COMMON         0x20000040        0x4 Drivers\STM32F0xx_HAL_Driver\Src\stm32f0xx_hal.o
                0x20000040                uwTick
 COMMON         0x20000044      0x238 Src\IR_Common.o
                0x20000044                htim17
                0x20000084                htim3
                0x200000c4                huart1
                0x20000134                aSIRC_CaptureValue
                0x200001fc                htim2
                0x2000023c                htim16
 COMMON         0x2000027c        0x8 Src\SIRC_Encode.o
                0x2000027c                aSIRCFramePWForm
                0x20000284                . = ALIGN (0x4)
                0x20000284                _ebss = .
                0x20000284                __bss_end__ = _ebss

._user_heap_stack
                0x20000284      0x600 load address 0x0800297c
                0x20000284                . = ALIGN (0x4)
                0x20000284                PROVIDE (end, .)
                [!provide]                PROVIDE (_end, .)
                0x20000484                . = (. + _Min_Heap_Size)
 *fill*         0x20000284      0x200 
                0x20000884                . = (. + _Min_Stack_Size)
 *fill*         0x20000484      0x400 
                0x20000884                . = ALIGN (0x4)

/DISCARD/
 libc.a(*)
 libm.a(*)
 libgcc.a(*)

.ARM.attributes
                0x00000000       0x28
 *(.ARM.attributes)
 .ARM.attributes
                0x00000000       0x1e c:/program files (x86)/atollic/truestudio for stm32 9.0.1/armtools/bin/../lib/gcc/arm-atollic-eabi/6.3.1/armv6-m/crti.o
 .ARM.attributes
                0x0000001e       0x2c c:/program files (x86)/atollic/truestudio for stm32 9.0.1/armtools/bin/../lib/gcc/arm-atollic-eabi/6.3.1/armv6-m/crtbegin.o
 .ARM.attributes
                0x0000004a       0x31 Drivers\STM32F0xx_HAL_Driver\Src\stm32f0xx_hal.o
 .ARM.attributes
                0x0000007b       0x31 Drivers\STM32F0xx_HAL_Driver\Src\stm32f0xx_hal_cortex.o
 .ARM.attributes
                0x000000ac       0x31 Drivers\STM32F0xx_HAL_Driver\Src\stm32f0xx_hal_gpio.o
 .ARM.attributes
                0x000000dd       0x31 Drivers\STM32F0xx_HAL_Driver\Src\stm32f0xx_hal_rcc.o
 .ARM.attributes
                0x0000010e       0x31 Drivers\STM32F0xx_HAL_Driver\Src\stm32f0xx_hal_rcc_ex.o
 .ARM.attributes
                0x0000013f       0x31 Drivers\STM32F0xx_HAL_Driver\Src\stm32f0xx_hal_tim.o
 .ARM.attributes
                0x00000170       0x31 Drivers\STM32F0xx_HAL_Driver\Src\stm32f0xx_hal_tim_ex.o
 .ARM.attributes
                0x000001a1       0x31 Src\IR_Common.o
 .ARM.attributes
                0x000001d2       0x31 Src\SIRC_Encode.o
 .ARM.attributes
                0x00000203       0x31 Src\main.o
 .ARM.attributes
                0x00000234       0x31 Src\stm32f0xx_hal_msp.o
 .ARM.attributes
                0x00000265       0x31 Src\stm32f0xx_it.o
 .ARM.attributes
                0x00000296       0x31 Src\system_stm32f0xx.o
 .ARM.attributes
                0x000002c7       0x21 startup\startup_stm32f051x8.o
 .ARM.attributes
                0x000002e8       0x2c c:/program files (x86)/atollic/truestudio for stm32 9.0.1/armtools/bin/../lib/gcc/arm-atollic-eabi/6.3.1/../../../../arm-atollic-eabi/lib/armv6-m\libc_nano.a(lib_a-init.o)
 .ARM.attributes
                0x00000314       0x1e c:/program files (x86)/atollic/truestudio for stm32 9.0.1/armtools/bin/../lib/gcc/arm-atollic-eabi/6.3.1/armv6-m\libgcc.a(_udivsi3.o)
 .ARM.attributes
                0x00000332       0x1e c:/program files (x86)/atollic/truestudio for stm32 9.0.1/armtools/bin/../lib/gcc/arm-atollic-eabi/6.3.1/armv6-m\libgcc.a(_dvmd_tls.o)
 .ARM.attributes
                0x00000350       0x1e c:/program files (x86)/atollic/truestudio for stm32 9.0.1/armtools/bin/../lib/gcc/arm-atollic-eabi/6.3.1/armv6-m/crtn.o
OUTPUT(SIRC_Decode.elf elf32-littlearm)

.debug_info     0x00000000     0xf587
 .debug_info    0x00000000      0xddc Drivers\STM32F0xx_HAL_Driver\Src\stm32f0xx_hal.o
 .debug_info    0x00000ddc      0xf29 Drivers\STM32F0xx_HAL_Driver\Src\stm32f0xx_hal_cortex.o
 .debug_info    0x00001d05      0xe52 Drivers\STM32F0xx_HAL_Driver\Src\stm32f0xx_hal_gpio.o
 .debug_info    0x00002b57      0xf9c Drivers\STM32F0xx_HAL_Driver\Src\stm32f0xx_hal_rcc.o
 .debug_info    0x00003af3      0xb96 Drivers\STM32F0xx_HAL_Driver\Src\stm32f0xx_hal_rcc_ex.o
 .debug_info    0x00004689     0x2a8c Drivers\STM32F0xx_HAL_Driver\Src\stm32f0xx_hal_tim.o
 .debug_info    0x00007115     0x1838 Drivers\STM32F0xx_HAL_Driver\Src\stm32f0xx_hal_tim_ex.o
 .debug_info    0x0000894d     0x128f Src\IR_Common.o
 .debug_info    0x00009bdc     0x1818 Src\SIRC_Encode.o
 .debug_info    0x0000b3f4     0x1426 Src\main.o
 .debug_info    0x0000c81a     0x1474 Src\stm32f0xx_hal_msp.o
 .debug_info    0x0000dc8e      0xe2b Src\stm32f0xx_it.o
 .debug_info    0x0000eab9      0xa63 Src\system_stm32f0xx.o
 .debug_info    0x0000f51c       0x6b startup\startup_stm32f051x8.o

.debug_abbrev   0x00000000     0x1e26
 .debug_abbrev  0x00000000      0x266 Drivers\STM32F0xx_HAL_Driver\Src\stm32f0xx_hal.o
 .debug_abbrev  0x00000266      0x30f Drivers\STM32F0xx_HAL_Driver\Src\stm32f0xx_hal_cortex.o
 .debug_abbrev  0x00000575      0x24c Drivers\STM32F0xx_HAL_Driver\Src\stm32f0xx_hal_gpio.o
 .debug_abbrev  0x000007c1      0x281 Drivers\STM32F0xx_HAL_Driver\Src\stm32f0xx_hal_rcc.o
 .debug_abbrev  0x00000a42      0x223 Drivers\STM32F0xx_HAL_Driver\Src\stm32f0xx_hal_rcc_ex.o
 .debug_abbrev  0x00000c65      0x2ab Drivers\STM32F0xx_HAL_Driver\Src\stm32f0xx_hal_tim.o
 .debug_abbrev  0x00000f10      0x288 Drivers\STM32F0xx_HAL_Driver\Src\stm32f0xx_hal_tim_ex.o
 .debug_abbrev  0x00001198      0x23b Src\IR_Common.o
 .debug_abbrev  0x000013d3      0x2a4 Src\SIRC_Encode.o
 .debug_abbrev  0x00001677      0x20e Src\main.o
 .debug_abbrev  0x00001885      0x201 Src\stm32f0xx_hal_msp.o
 .debug_abbrev  0x00001a86      0x1c4 Src\stm32f0xx_it.o
 .debug_abbrev  0x00001c4a      0x1ca Src\system_stm32f0xx.o
 .debug_abbrev  0x00001e14       0x12 startup\startup_stm32f051x8.o

.debug_aranges  0x00000000      0x908
 .debug_aranges
                0x00000000       0xb8 Drivers\STM32F0xx_HAL_Driver\Src\stm32f0xx_hal.o
 .debug_aranges
                0x000000b8       0xc0 Drivers\STM32F0xx_HAL_Driver\Src\stm32f0xx_hal_cortex.o
 .debug_aranges
                0x00000178       0x58 Drivers\STM32F0xx_HAL_Driver\Src\stm32f0xx_hal_gpio.o
 .debug_aranges
                0x000001d0       0x80 Drivers\STM32F0xx_HAL_Driver\Src\stm32f0xx_hal_rcc.o
 .debug_aranges
                0x00000250       0x30 Drivers\STM32F0xx_HAL_Driver\Src\stm32f0xx_hal_rcc_ex.o
 .debug_aranges
                0x00000280      0x378 Drivers\STM32F0xx_HAL_Driver\Src\stm32f0xx_hal_tim.o
 .debug_aranges
                0x000005f8      0x148 Drivers\STM32F0xx_HAL_Driver\Src\stm32f0xx_hal_tim_ex.o
 .debug_aranges
                0x00000740       0x30 Src\IR_Common.o
 .debug_aranges
                0x00000770       0x80 Src\SIRC_Encode.o
 .debug_aranges
                0x000007f0       0x30 Src\main.o
 .debug_aranges
                0x00000820       0x40 Src\stm32f0xx_hal_msp.o
 .debug_aranges
                0x00000860       0x58 Src\stm32f0xx_it.o
 .debug_aranges
                0x000008b8       0x28 Src\system_stm32f0xx.o
 .debug_aranges
                0x000008e0       0x28 startup\startup_stm32f051x8.o

.debug_ranges   0x00000000      0x830
 .debug_ranges  0x00000000       0xa8 Drivers\STM32F0xx_HAL_Driver\Src\stm32f0xx_hal.o
 .debug_ranges  0x000000a8       0xb0 Drivers\STM32F0xx_HAL_Driver\Src\stm32f0xx_hal_cortex.o
 .debug_ranges  0x00000158       0x48 Drivers\STM32F0xx_HAL_Driver\Src\stm32f0xx_hal_gpio.o
 .debug_ranges  0x000001a0       0x70 Drivers\STM32F0xx_HAL_Driver\Src\stm32f0xx_hal_rcc.o
 .debug_ranges  0x00000210       0x20 Drivers\STM32F0xx_HAL_Driver\Src\stm32f0xx_hal_rcc_ex.o
 .debug_ranges  0x00000230      0x368 Drivers\STM32F0xx_HAL_Driver\Src\stm32f0xx_hal_tim.o
 .debug_ranges  0x00000598      0x138 Drivers\STM32F0xx_HAL_Driver\Src\stm32f0xx_hal_tim_ex.o
 .debug_ranges  0x000006d0       0x20 Src\IR_Common.o
 .debug_ranges  0x000006f0       0x70 Src\SIRC_Encode.o
 .debug_ranges  0x00000760       0x20 Src\main.o
 .debug_ranges  0x00000780       0x30 Src\stm32f0xx_hal_msp.o
 .debug_ranges  0x000007b0       0x48 Src\stm32f0xx_it.o
 .debug_ranges  0x000007f8       0x18 Src\system_stm32f0xx.o
 .debug_ranges  0x00000810       0x20 startup\startup_stm32f051x8.o

.debug_line     0x00000000     0x4725
 .debug_line    0x00000000      0x403 Drivers\STM32F0xx_HAL_Driver\Src\stm32f0xx_hal.o
 .debug_line    0x00000403      0x429 Drivers\STM32F0xx_HAL_Driver\Src\stm32f0xx_hal_cortex.o
 .debug_line    0x0000082c      0x409 Drivers\STM32F0xx_HAL_Driver\Src\stm32f0xx_hal_gpio.o
 .debug_line    0x00000c35      0x4fb Drivers\STM32F0xx_HAL_Driver\Src\stm32f0xx_hal_rcc.o
 .debug_line    0x00001130      0x385 Drivers\STM32F0xx_HAL_Driver\Src\stm32f0xx_hal_rcc_ex.o
 .debug_line    0x000014b5     0x1578 Drivers\STM32F0xx_HAL_Driver\Src\stm32f0xx_hal_tim.o
 .debug_line    0x00002a2d      0x91b Drivers\STM32F0xx_HAL_Driver\Src\stm32f0xx_hal_tim_ex.o
 .debug_line    0x00003348      0x2f0 Src\IR_Common.o
 .debug_line    0x00003638      0x4cf Src\SIRC_Encode.o
 .debug_line    0x00003b07      0x326 Src\main.o
 .debug_line    0x00003e2d      0x327 Src\stm32f0xx_hal_msp.o
 .debug_line    0x00004154      0x2ff Src\stm32f0xx_it.o
 .debug_line    0x00004453      0x24f Src\system_stm32f0xx.o
 .debug_line    0x000046a2       0x83 startup\startup_stm32f051x8.o

.debug_str      0x00000000     0x2f14
 .debug_str     0x00000000      0x98f Drivers\STM32F0xx_HAL_Driver\Src\stm32f0xx_hal.o
                                0xa22 (size before relaxing)
 .debug_str     0x0000098f      0x220 Drivers\STM32F0xx_HAL_Driver\Src\stm32f0xx_hal_cortex.o
                                0xa66 (size before relaxing)
 .debug_str     0x00000baf      0x1cc Drivers\STM32F0xx_HAL_Driver\Src\stm32f0xx_hal_gpio.o
                                0x859 (size before relaxing)
 .debug_str     0x00000d7b      0x2f4 Drivers\STM32F0xx_HAL_Driver\Src\stm32f0xx_hal_rcc.o
                                0xa0b (size before relaxing)
 .debug_str     0x0000106f      0x139 Drivers\STM32F0xx_HAL_Driver\Src\stm32f0xx_hal_rcc_ex.o
                                0x7d2 (size before relaxing)
 .debug_str     0x000011a8     0x10cf Drivers\STM32F0xx_HAL_Driver\Src\stm32f0xx_hal_tim.o
                               0x177f (size before relaxing)
 .debug_str     0x00002277      0x543 Drivers\STM32F0xx_HAL_Driver\Src\stm32f0xx_hal_tim_ex.o
                               0x1094 (size before relaxing)
 .debug_str     0x000027ba      0x37a Src\IR_Common.o
                                0xd6f (size before relaxing)
 .debug_str     0x00002b34      0x252 Src\SIRC_Encode.o
                               0x128e (size before relaxing)
 .debug_str     0x00002d86       0x55 Src\main.o
                               0x105f (size before relaxing)
 .debug_str     0x00002ddb       0x4f Src\stm32f0xx_hal_msp.o
                                0xf15 (size before relaxing)
 .debug_str     0x00002e2a       0x90 Src\stm32f0xx_it.o
                                0xa27 (size before relaxing)
 .debug_str     0x00002eba       0x5a Src\system_stm32f0xx.o
                                0x67f (size before relaxing)

.comment        0x00000000       0x7c
 .comment       0x00000000       0x7c Drivers\STM32F0xx_HAL_Driver\Src\stm32f0xx_hal.o
                                 0x7d (size before relaxing)
 .comment       0x0000007c       0x7d Drivers\STM32F0xx_HAL_Driver\Src\stm32f0xx_hal_cortex.o
 .comment       0x0000007c       0x7d Drivers\STM32F0xx_HAL_Driver\Src\stm32f0xx_hal_gpio.o
 .comment       0x0000007c       0x7d Drivers\STM32F0xx_HAL_Driver\Src\stm32f0xx_hal_rcc.o
 .comment       0x0000007c       0x7d Drivers\STM32F0xx_HAL_Driver\Src\stm32f0xx_hal_rcc_ex.o
 .comment       0x0000007c       0x7d Drivers\STM32F0xx_HAL_Driver\Src\stm32f0xx_hal_tim.o
 .comment       0x0000007c       0x7d Drivers\STM32F0xx_HAL_Driver\Src\stm32f0xx_hal_tim_ex.o
 .comment       0x0000007c       0x7d Src\IR_Common.o
 .comment       0x0000007c       0x7d Src\SIRC_Encode.o
 .comment       0x0000007c       0x7d Src\main.o
 .comment       0x0000007c       0x7d Src\stm32f0xx_hal_msp.o
 .comment       0x0000007c       0x7d Src\stm32f0xx_it.o
 .comment       0x0000007c       0x7d Src\system_stm32f0xx.o

.debug_frame    0x00000000     0x1f20
 .debug_frame   0x00000000      0x248 Drivers\STM32F0xx_HAL_Driver\Src\stm32f0xx_hal.o
 .debug_frame   0x00000248      0x2a4 Drivers\STM32F0xx_HAL_Driver\Src\stm32f0xx_hal_cortex.o
 .debug_frame   0x000004ec      0x110 Drivers\STM32F0xx_HAL_Driver\Src\stm32f0xx_hal_gpio.o
 .debug_frame   0x000005fc      0x194 Drivers\STM32F0xx_HAL_Driver\Src\stm32f0xx_hal_rcc.o
 .debug_frame   0x00000790       0x70 Drivers\STM32F0xx_HAL_Driver\Src\stm32f0xx_hal_rcc_ex.o
 .debug_frame   0x00000800      0xd90 Drivers\STM32F0xx_HAL_Driver\Src\stm32f0xx_hal_tim.o
 .debug_frame   0x00001590      0x4d0 Drivers\STM32F0xx_HAL_Driver\Src\stm32f0xx_hal_tim_ex.o
 .debug_frame   0x00001a60       0x70 Src\IR_Common.o
 .debug_frame   0x00001ad0      0x1ac Src\SIRC_Encode.o
 .debug_frame   0x00001c7c       0x6c Src\main.o
 .debug_frame   0x00001ce8       0xb0 Src\stm32f0xx_hal_msp.o
 .debug_frame   0x00001d98       0xf0 Src\stm32f0xx_it.o
 .debug_frame   0x00001e88       0x4c Src\system_stm32f0xx.o
 .debug_frame   0x00001ed4       0x2c c:/program files (x86)/atollic/truestudio for stm32 9.0.1/armtools/bin/../lib/gcc/arm-atollic-eabi/6.3.1/../../../../arm-atollic-eabi/lib/armv6-m\libc_nano.a(lib_a-init.o)
 .debug_frame   0x00001f00       0x20 c:/program files (x86)/atollic/truestudio for stm32 9.0.1/armtools/bin/../lib/gcc/arm-atollic-eabi/6.3.1/armv6-m\libgcc.a(_udivsi3.o)
